{
  "_format": "hh-sol-artifact-1",
  "contractName": "Bank",
  "sourceName": "contracts/Bank.sol",
  "abi": [
    {
      "inputs": [],
      "name": "accountValidationError",
      "type": "error"
    },
    {
      "anonymous": false,
      "inputs": [
        {
          "indexed": true,
          "internalType": "address",
          "name": "owner",
          "type": "address"
        },
        {
          "indexed": true,
          "internalType": "address",
          "name": "accountNumber",
          "type": "address"
        },
        {
          "indexed": false,
          "internalType": "string",
          "name": "name",
          "type": "string"
        }
      ],
      "name": "AccountCreated",
      "type": "event"
    },
    {
      "anonymous": false,
      "inputs": [
        {
          "indexed": true,
          "internalType": "address",
          "name": "owner",
          "type": "address"
        },
        {
          "indexed": true,
          "internalType": "address",
          "name": "accountNumber",
          "type": "address"
        },
        {
          "indexed": false,
          "internalType": "uint256",
          "name": "amount",
          "type": "uint256"
        }
      ],
      "name": "Deposit",
      "type": "event"
    },
    {
      "anonymous": false,
      "inputs": [
        {
          "indexed": true,
          "internalType": "address",
          "name": "from",
          "type": "address"
        },
        {
          "indexed": true,
          "internalType": "address",
          "name": "to",
          "type": "address"
        },
        {
          "indexed": false,
          "internalType": "uint256",
          "name": "amount",
          "type": "uint256"
        }
      ],
      "name": "Transfer",
      "type": "event"
    },
    {
      "anonymous": false,
      "inputs": [
        {
          "indexed": true,
          "internalType": "address",
          "name": "owner",
          "type": "address"
        },
        {
          "indexed": true,
          "internalType": "address",
          "name": "accountNumber",
          "type": "address"
        },
        {
          "indexed": false,
          "internalType": "uint256",
          "name": "amount",
          "type": "uint256"
        }
      ],
      "name": "Withdrawal",
      "type": "event"
    },
    {
      "inputs": [
        {
          "internalType": "string",
          "name": "name",
          "type": "string"
        }
      ],
      "name": "createAccount",
      "outputs": [],
      "stateMutability": "nonpayable",
      "type": "function"
    },
    {
      "inputs": [],
      "name": "deposit",
      "outputs": [],
      "stateMutability": "payable",
      "type": "function"
    },
    {
      "inputs": [],
      "name": "getAccountDetails",
      "outputs": [
        {
          "internalType": "string",
          "name": "",
          "type": "string"
        },
        {
          "internalType": "address",
          "name": "",
          "type": "address"
        },
        {
          "internalType": "uint256",
          "name": "",
          "type": "uint256"
        }
      ],
      "stateMutability": "view",
      "type": "function"
    },
    {
      "inputs": [
        {
          "internalType": "address",
          "name": "accountAddress",
          "type": "address"
        }
      ],
      "name": "getAccountDetailsByAddress",
      "outputs": [
        {
          "internalType": "string",
          "name": "",
          "type": "string"
        },
        {
          "internalType": "address",
          "name": "",
          "type": "address"
        },
        {
          "internalType": "uint256",
          "name": "",
          "type": "uint256"
        }
      ],
      "stateMutability": "view",
      "type": "function"
    },
    {
      "inputs": [],
      "name": "getAllAccounts",
      "outputs": [
        {
          "components": [
            {
              "internalType": "string",
              "name": "name",
              "type": "string"
            },
            {
              "internalType": "address",
              "name": "accountNumber",
              "type": "address"
            },
            {
              "internalType": "uint256",
              "name": "balance",
              "type": "uint256"
            },
            {
              "internalType": "bool",
              "name": "exists",
              "type": "bool"
            }
          ],
          "internalType": "struct Bank.Account[]",
          "name": "",
          "type": "tuple[]"
        }
      ],
      "stateMutability": "view",
      "type": "function"
    },
    {
      "inputs": [],
      "name": "getBalance",
      "outputs": [
        {
          "internalType": "uint256",
          "name": "",
          "type": "uint256"
        }
      ],
      "stateMutability": "view",
      "type": "function"
    },
    {
      "inputs": [
        {
          "internalType": "address",
          "name": "to",
          "type": "address"
        },
        {
          "internalType": "uint256",
          "name": "amount",
          "type": "uint256"
        }
      ],
      "name": "transfer",
      "outputs": [],
      "stateMutability": "nonpayable",
      "type": "function"
    },
    {
      "inputs": [
        {
          "internalType": "uint256",
          "name": "amount",
          "type": "uint256"
        }
      ],
      "name": "withdraw",
      "outputs": [],
      "stateMutability": "nonpayable",
      "type": "function"
    }
  ],
  "bytecode": "0x608060405234801561001057600080fd5b50611d20806100206000396000f3fe60806040526004361061007b5760003560e01c8063a31f0f0c1161004e578063a31f0f0c14610128578063a9059cbb14610167578063c39869c114610190578063d0e30db0146101bd5761007b565b806308e93d0a1461008057806312065fe0146100ab578063298daf5b146100d65780632e1a7d4d146100ff575b600080fd5b34801561008c57600080fd5b506100956101c7565b6040516100a29190611335565b60405180910390f35b3480156100b757600080fd5b506100c06103fe565b6040516100cd9190611366565b60405180910390f35b3480156100e257600080fd5b506100fd60048036038101906100f891906114ca565b6104d5565b005b34801561010b57600080fd5b506101266004803603810190610121919061153f565b610731565b005b34801561013457600080fd5b5061014f600480360381019061014a9190611598565b61094a565b60405161015e9392919061161e565b60405180910390f35b34801561017357600080fd5b5061018e6004803603810190610189919061165c565b610ae7565b005b34801561019c57600080fd5b506101a5610da0565b6040516101b49392919061161e565b60405180910390f35b6101c5610f3b565b005b60606000600180549050905060008167ffffffffffffffff8111156101ef576101ee61139f565b5b60405190808252806020026020018201604052801561022857816020015b6102156110cb565b81526020019060019003908161020d5790505b50905060005b828110156103f5576000806001838154811061024d5761024c61169c565b5b9060005260206000200160009054906101000a900473ffffffffffffffffffffffffffffffffffffffff1673ffffffffffffffffffffffffffffffffffffffff1673ffffffffffffffffffffffffffffffffffffffff1681526020019081526020016000206040518060800160405290816000820180546102cd906116fa565b80601f01602080910402602001604051908101604052809291908181526020018280546102f9906116fa565b80156103465780601f1061031b57610100808354040283529160200191610346565b820191906000526020600020905b81548152906001019060200180831161032957829003601f168201915b505050505081526020016001820160009054906101000a900473ffffffffffffffffffffffffffffffffffffffff1673ffffffffffffffffffffffffffffffffffffffff1673ffffffffffffffffffffffffffffffffffffffff168152602001600282015481526020016003820160009054906101000a900460ff1615151515815250508282815181106103dd576103dc61169c565b5b6020026020010181905250808060010191505061022e565b50809250505090565b60008060003373ffffffffffffffffffffffffffffffffffffffff1673ffffffffffffffffffffffffffffffffffffffff16815260200190815260200160002060030160009054906101000a900460ff1661048e576040517f08c379a000000000000000000000000000000000000000000000000000000000815260040161048590611777565b60405180910390fd5b6000803373ffffffffffffffffffffffffffffffffffffffff1673ffffffffffffffffffffffffffffffffffffffff16815260200190815260200160002060020154905090565b6000803373ffffffffffffffffffffffffffffffffffffffff1673ffffffffffffffffffffffffffffffffffffffff16815260200190815260200160002060030160009054906101000a900460ff1615610564576040517f08c379a000000000000000000000000000000000000000000000000000000000815260040161055b906117e3565b60405180910390fd5b60405180608001604052808281526020013373ffffffffffffffffffffffffffffffffffffffff16815260200160008152602001600115158152506000803373ffffffffffffffffffffffffffffffffffffffff1673ffffffffffffffffffffffffffffffffffffffff16815260200190815260200160002060008201518160000190816105f291906119af565b5060208201518160010160006101000a81548173ffffffffffffffffffffffffffffffffffffffff021916908373ffffffffffffffffffffffffffffffffffffffff1602179055506040820151816002015560608201518160030160006101000a81548160ff0219169083151502179055509050506001339080600181540180825580915050600190039060005260206000200160009091909190916101000a81548173ffffffffffffffffffffffffffffffffffffffff021916908373ffffffffffffffffffffffffffffffffffffffff1602179055503373ffffffffffffffffffffffffffffffffffffffff163373ffffffffffffffffffffffffffffffffffffffff167efa0c50b0f4cf669e4f59b5372d3925b09d456bcf33eacb3dcd05dfb04a7c35836040516107269190611a81565b60405180910390a350565b6000803373ffffffffffffffffffffffffffffffffffffffff1673ffffffffffffffffffffffffffffffffffffffff16815260200190815260200160002060030160009054906101000a900460ff166107bf576040517f08c379a00000000000000000000000000000000000000000000000000000000081526004016107b690611777565b60405180910390fd5b806000803373ffffffffffffffffffffffffffffffffffffffff1673ffffffffffffffffffffffffffffffffffffffff168152602001908152602001600020600201541015610843576040517f08c379a000000000000000000000000000000000000000000000000000000000815260040161083a90611aef565b60405180910390fd5b806000803373ffffffffffffffffffffffffffffffffffffffff1673ffffffffffffffffffffffffffffffffffffffff16815260200190815260200160002060020160008282546108949190611b3e565b925050819055503373ffffffffffffffffffffffffffffffffffffffff166108fc829081150290604051600060405180830381858888f193505050501580156108e1573d6000803e3d6000fd5b503373ffffffffffffffffffffffffffffffffffffffff163373ffffffffffffffffffffffffffffffffffffffff167f2717ead6b9200dd235aad468c9809ea400fe33ac69b5bfaa6d3e90fc922b63988360405161093f9190611366565b60405180910390a350565b60606000806000808573ffffffffffffffffffffffffffffffffffffffff1673ffffffffffffffffffffffffffffffffffffffff16815260200190815260200160002060030160009054906101000a900460ff166109dd576040517f08c379a00000000000000000000000000000000000000000000000000000000081526004016109d490611777565b60405180910390fd5b60008060008673ffffffffffffffffffffffffffffffffffffffff1673ffffffffffffffffffffffffffffffffffffffff1681526020019081526020016000209050806000018160010160009054906101000a900473ffffffffffffffffffffffffffffffffffffffff168260020154828054610a59906116fa565b80601f0160208091040260200160405190810160405280929190818152602001828054610a85906116fa565b8015610ad25780601f10610aa757610100808354040283529160200191610ad2565b820191906000526020600020905b815481529060010190602001808311610ab557829003601f168201915b50505050509250935093509350509193909250565b6000803373ffffffffffffffffffffffffffffffffffffffff1673ffffffffffffffffffffffffffffffffffffffff16815260200190815260200160002060030160009054906101000a900460ff16610b75576040517f08c379a0000000000000000000000000000000000000000000000000000000008152600401610b6c90611bbe565b60405180910390fd5b6000808373ffffffffffffffffffffffffffffffffffffffff1673ffffffffffffffffffffffffffffffffffffffff16815260200190815260200160002060030160009054906101000a900460ff16610c03576040517f08c379a0000000000000000000000000000000000000000000000000000000008152600401610bfa90611c2a565b60405180910390fd5b806000803373ffffffffffffffffffffffffffffffffffffffff1673ffffffffffffffffffffffffffffffffffffffff168152602001908152602001600020600201541015610c87576040517f08c379a0000000000000000000000000000000000000000000000000000000008152600401610c7e90611aef565b60405180910390fd5b806000803373ffffffffffffffffffffffffffffffffffffffff1673ffffffffffffffffffffffffffffffffffffffff1681526020019081526020016000206002016000828254610cd89190611b3e565b92505081905550806000808473ffffffffffffffffffffffffffffffffffffffff1673ffffffffffffffffffffffffffffffffffffffff1681526020019081526020016000206002016000828254610d309190611c4a565b925050819055508173ffffffffffffffffffffffffffffffffffffffff163373ffffffffffffffffffffffffffffffffffffffff167fddf252ad1be2c89b69c2b068fc378daa952ba7f163c4a11628f55a4df523b3ef83604051610d949190611366565b60405180910390a35050565b60606000806000803373ffffffffffffffffffffffffffffffffffffffff1673ffffffffffffffffffffffffffffffffffffffff16815260200190815260200160002060030160009054906101000a900460ff16610e33576040517f08c379a0000000000000000000000000000000000000000000000000000000008152600401610e2a90611777565b60405180910390fd5b60008060003373ffffffffffffffffffffffffffffffffffffffff1673ffffffffffffffffffffffffffffffffffffffff1681526020019081526020016000209050806000018160010160009054906101000a900473ffffffffffffffffffffffffffffffffffffffff168260020154828054610eaf906116fa565b80601f0160208091040260200160405190810160405280929190818152602001828054610edb906116fa565b8015610f285780601f10610efd57610100808354040283529160200191610f28565b820191906000526020600020905b815481529060010190602001808311610f0b57829003601f168201915b5050505050925093509350935050909192565b60003411610f7e576040517f08c379a0000000000000000000000000000000000000000000000000000000008152600401610f7590611cca565b60405180910390fd5b6000803373ffffffffffffffffffffffffffffffffffffffff1673ffffffffffffffffffffffffffffffffffffffff16815260200190815260200160002060030160009054906101000a900460ff1661100c576040517f08c379a000000000000000000000000000000000000000000000000000000000815260040161100390611777565b60405180910390fd5b346000803373ffffffffffffffffffffffffffffffffffffffff1673ffffffffffffffffffffffffffffffffffffffff168152602001908152602001600020600201600082825461105d9190611c4a565b925050819055503373ffffffffffffffffffffffffffffffffffffffff163373ffffffffffffffffffffffffffffffffffffffff167f5548c837ab068cf56a2c2479df0882a4922fd203edb7517321831d95078c5f62346040516110c19190611366565b60405180910390a3565b604051806080016040528060608152602001600073ffffffffffffffffffffffffffffffffffffffff168152602001600081526020016000151581525090565b600081519050919050565b600082825260208201905092915050565b6000819050602082019050919050565b600081519050919050565b600082825260208201905092915050565b60005b83811015611171578082015181840152602081019050611156565b60008484015250505050565b6000601f19601f8301169050919050565b600061119982611137565b6111a38185611142565b93506111b3818560208601611153565b6111bc8161117d565b840191505092915050565b600073ffffffffffffffffffffffffffffffffffffffff82169050919050565b60006111f2826111c7565b9050919050565b611202816111e7565b82525050565b6000819050919050565b61121b81611208565b82525050565b60008115159050919050565b61123681611221565b82525050565b60006080830160008301518482036000860152611259828261118e565b915050602083015161126e60208601826111f9565b5060408301516112816040860182611212565b506060830151611294606086018261122d565b508091505092915050565b60006112ab838361123c565b905092915050565b6000602082019050919050565b60006112cb8261110b565b6112d58185611116565b9350836020820285016112e785611127565b8060005b858110156113235784840389528151611304858261129f565b945061130f836112b3565b925060208a019950506001810190506112eb565b50829750879550505050505092915050565b6000602082019050818103600083015261134f81846112c0565b905092915050565b61136081611208565b82525050565b600060208201905061137b6000830184611357565b92915050565b6000604051905090565b600080fd5b600080fd5b600080fd5b600080fd5b7f4e487b7100000000000000000000000000000000000000000000000000000000600052604160045260246000fd5b6113d78261117d565b810181811067ffffffffffffffff821117156113f6576113f561139f565b5b80604052505050565b6000611409611381565b905061141582826113ce565b919050565b600067ffffffffffffffff8211156114355761143461139f565b5b61143e8261117d565b9050602081019050919050565b82818337600083830152505050565b600061146d6114688461141a565b6113ff565b9050828152602081018484840111156114895761148861139a565b5b61149484828561144b565b509392505050565b600082601f8301126114b1576114b0611395565b5b81356114c184826020860161145a565b91505092915050565b6000602082840312156114e0576114df61138b565b5b600082013567ffffffffffffffff8111156114fe576114fd611390565b5b61150a8482850161149c565b91505092915050565b61151c81611208565b811461152757600080fd5b50565b60008135905061153981611513565b92915050565b6000602082840312156115555761155461138b565b5b60006115638482850161152a565b91505092915050565b611575816111e7565b811461158057600080fd5b50565b6000813590506115928161156c565b92915050565b6000602082840312156115ae576115ad61138b565b5b60006115bc84828501611583565b91505092915050565b600082825260208201905092915050565b60006115e182611137565b6115eb81856115c5565b93506115fb818560208601611153565b6116048161117d565b840191505092915050565b611618816111e7565b82525050565b6000606082019050818103600083015261163881866115d6565b9050611647602083018561160f565b6116546040830184611357565b949350505050565b600080604083850312156116735761167261138b565b5b600061168185828601611583565b92505060206116928582860161152a565b9150509250929050565b7f4e487b7100000000000000000000000000000000000000000000000000000000600052603260045260246000fd5b7f4e487b7100000000000000000000000000000000000000000000000000000000600052602260045260246000fd5b6000600282049050600182168061171257607f821691505b602082108103611725576117246116cb565b5b50919050565b7f4163636f756e7420646f6573206e6f7420657869737400000000000000000000600082015250565b60006117616016836115c5565b915061176c8261172b565b602082019050919050565b6000602082019050818103600083015261179081611754565b9050919050565b7f4163636f756e7420616c72656164792065786973747300000000000000000000600082015250565b60006117cd6016836115c5565b91506117d882611797565b602082019050919050565b600060208201905081810360008301526117fc816117c0565b9050919050565b60008190508160005260206000209050919050565b60006020601f8301049050919050565b600082821b905092915050565b6000600883026118657fffffffffffffffffffffffffffffffffffffffffffffffffffffffffffffffff82611828565b61186f8683611828565b95508019841693508086168417925050509392505050565b6000819050919050565b60006118ac6118a76118a284611208565b611887565b611208565b9050919050565b6000819050919050565b6118c683611891565b6118da6118d2826118b3565b848454611835565b825550505050565b600090565b6118ef6118e2565b6118fa8184846118bd565b505050565b5b8181101561191e576119136000826118e7565b600181019050611900565b5050565b601f8211156119635761193481611803565b61193d84611818565b8101602085101561194c578190505b61196061195885611818565b8301826118ff565b50505b505050565b600082821c905092915050565b600061198660001984600802611968565b1980831691505092915050565b600061199f8383611975565b9150826002028217905092915050565b6119b882611137565b67ffffffffffffffff8111156119d1576119d061139f565b5b6119db82546116fa565b6119e6828285611922565b600060209050601f831160018114611a195760008415611a07578287015190505b611a118582611993565b865550611a79565b601f198416611a2786611803565b60005b82811015611a4f57848901518255600182019150602085019450602081019050611a2a565b86831015611a6c5784890151611a68601f891682611975565b8355505b6001600288020188555050505b505050505050565b60006020820190508181036000830152611a9b81846115d6565b905092915050565b7f496e73756666696369656e742062616c616e6365000000000000000000000000600082015250565b6000611ad96014836115c5565b9150611ae482611aa3565b602082019050919050565b60006020820190508181036000830152611b0881611acc565b9050919050565b7f4e487b7100000000000000000000000000000000000000000000000000000000600052601160045260246000fd5b6000611b4982611208565b9150611b5483611208565b9250828203905081811115611b6c57611b6b611b0f565b5b92915050565b7f53656e646572206163636f756e7420646f6573206e6f74206578697374000000600082015250565b6000611ba8601d836115c5565b9150611bb382611b72565b602082019050919050565b60006020820190508181036000830152611bd781611b9b565b9050919050565b7f526563697069656e74206163636f756e7420646f6573206e6f74206578697374600082015250565b6000611c146020836115c5565b9150611c1f82611bde565b602082019050919050565b60006020820190508181036000830152611c4381611c07565b9050919050565b6000611c5582611208565b9150611c6083611208565b9250828201905080821115611c7857611c77611b0f565b5b92915050565b7f4465706f73697420616d6f756e742063616e6e6f74206265207a65726f000000600082015250565b6000611cb4601d836115c5565b9150611cbf82611c7e565b602082019050919050565b60006020820190508181036000830152611ce381611ca7565b905091905056fea2646970667358221220b226d9407757f5ad9d6da369589f4457c6e3e30de609567cf9d356fe921cf0c664736f6c63430008180033",
  "linkReferences": {},
  "deployedLinkReferences": {}
}